:100000000C9489040C94BA040C94BA040C94BA04A9
:100010000C94BA040C94BA040C94BA040C94BA0468
:100020000C94BA040C94BA040C94BA040C94BA0458
:100030000C94BA040C94BA040C94BA040C94BA0448
:100040000C94BA040C94BA040C94BA040C94BA0438
:100050000C94BA040C94BA040C94BA040C94D30C07
:100060000C94BA040C944A3A0C943A3B0C94BA049B
:100070000C94BA040C94BA040C94BA040C94BA0408
:100080000C94BA040C94BA040C94BA040C94BA04F8
:100090000C947E3A0C94793B0C94BA040C94E53D94
:1000A0000C94BA040C94BA040C94BA040C94BA04D8
:1000B0000C94BA040C94BA040C94BA040C94BA04C8
:1000C0000C94BA040C94BA040C94BA040C94B23A8A
:1000D0000C94B83B0C94BA040C94E63A0C94F73B9D
:1000E0000C94BA04ED0DF00DE30DE70D270EF40DA1
:1000F000F80DFE0D020E060E0C0E100E140E270E3D
:100100001A0E1E0E220E0C94BB300C94BD0E0C94D5
:100110001A2F0C949A350C9477140C945E250C9439
:10012000FE0D0C94242C0C94060E0C94F80D0C94DB
:10013000D3050C94020E0C9487240C94E22F0C949B
:10014000ED390C94E70D0C94A3240C94300C0C9412
:100150007C150C94140E0C94A4140C94832F0C9402
:10016000B3330C94C5260C948F240C94270E0C9456
:10017000BC0C0C94B40B0C941F260C94E30D0C9443
:10018000193B0C94C0140C94C1300C9462250C944F
:100190003C260C94F00D0C9441300C9413260C94D6
:1001A00016270C940A280C94DF140C9413050C9455
:1001B000B2240C948E140C94100E0C94363C0C94B7
:1001C000F42C0C94F1050C94C2390C941A0E0C9476
:1001D00096390C94A6390C94ED0D0C94DC110C940A
:1001E000AA270C94E2390C9409280C94960B0C94D1
:1001F0000C260C94B3240C940C0E0C943B260C94FB
:10020000E3240C94D51C0C94F40D0C94E9140C9478
:10021000342D0C9434270C940B260C942B260C9420
:100220001E0E0C9481260C943B2B0C94DB110C9429
:10023000220E0000090A02080B0C0D070603040138
:1002400000000000000000000000000000000000AE
:10025000000000000000000000000000000011107D
:100260000F0000000000000000000000000000007F
:10027000000000000000000001021020200808100B
:100280002040102040800201020108040201010206
:1002900004081020408080402010080402018004DF
:1002A000020180402010080402010804020101023A
:1002B0000408102040800102040810204080050539
:1002C0000505070508080808020202020A0A0808CC
:1002D00004040404010101010101010103030303FA
:1002E00003030303040707070C0C0C0C0C0C0C0C89
:1002F0000202020206060606060606060B0B0B0B9A
:100300000B0B0B0B000020002300260029002C0003
:100310002F00320000010000030106010901000066
:100320002200250028002B002E003100340002019D
:100330000000050108010B01000021002400270036
:100340002A002D00300033000101000004010701E4
:100350000A017C3C3E5E2B3D3F2F5B5D3B2C2A22FD
:100360005C0000000000003E5B4F5B3E3E6B4F6B4D
:100370003E1C3E7C3E1C183C7E3C181C577D571C86
:100380001C5E7F5E1C00183C1800FFE7C3E7FF00FF
:1003900018241800FFE7DBE7FF30483A060E26294D
:1003A000792926407F050507407F05253F5A3CE710
:1003B0003C5A7F3E1C1C08081C1C3E7F14227F22D6
:1003C000145F5F005F5F06097F017F006689956AA1
:1003D000606060606094A2FFA29408047E0408102C
:1003E000207E201008082A1C08081C2A08081E1055
:1003F0001010100C1E0C1E0C30383E3830060E3E0D
:100400000E06000000000000005F0000000700076B
:1004100000147F147F14242A7F2A12231308646295
:1004200036495620500008070300001C22410000F6
:1004300041221C002A1C7F1C2A08083E0808008054
:1004400070300008080808080000606000201008EC
:1004500004023E5149453E00427F400072494949ED
:10046000462141494D331814127F1027454545391F
:100470003C4A494931412111090736494949364623
:100480004949291E00001400000040340000000803
:1004900014224114141414140041221408020159A6
:1004A00009063E415D594E7C1211127C7F49494933
:1004B000363E414141227F4141413E7F49494941C8
:1004C0007F090909013E414151737F0808087F00F7
:1004D000417F41002040413F017F081422417F407D
:1004E0004040407F021C027F7F0408107F3E414154
:1004F000413E7F090909063E4151215E7F091929C4
:1005000046264949493203017F01033F4040403FAD
:100510001F2040201F3F4038403F631408146303EE
:10052000047804036159494D43007F41414102046D
:10053000081020004141417F040201020440404074
:100540004040000307080020545478407F2844446A
:10055000383844444428384444287F385454541884
:1005600000087E090218A4A49C787F08040478007F
:10057000447D40002040403D007F10284400004161
:100580007F40007C047804787C0804047838444474
:100590004438FC1824241818242418FC7C0804046B
:1005A00008485454542404043F44243C4040207CD4
:1005B0001C2040201C3C4030403C44281028444C27
:1005C0009090907C4464544C4400083641000000F4
:1005D000770000004136080002010204023C262395
:1005E000263C1EA1A161123A4040207A385454554D
:1005F0005921555579412254547842215554784017
:1006000020545579400C1E5272123955555559399E
:100610005454545939555454580000457C410002F3
:10062000457D420001457C407D1211127DF0282558
:1006300028F07C545545002054547C547C0A097F92
:100640004932494949323A4444443A324A484830A6
:100650003A4141217A3A42402078009DA0A07D3D58
:100660004242423D3D4040403D3C24FF2424487EE0
:100670004943662B2FFC2F2BFF0929F620C0887ECB
:10068000090320545479410000447D413048484AD0
:1006900032384040227A007A0A0A727D0D19317D83
:1006A0002629292F28262929292630484D40203857
:1006B0000808080808080808382F10C8ACBA2F1016
:1006C0002834FA00007B000008142A142222142A7D
:1006D00014085500550055AA55AA55AAFF55FF55AF
:1006E000FF000000FF00101010FF00141414FF00A2
:1006F0001010FF00FF1010F010F0141414FC001480
:1007000014F700FF0000FF00FF1414F404FC14149D
:1007100017101F10101F101F1414141F001010109A
:10072000F0000000001F101010101F10101010F02B
:1007300010000000FF101010101010101010FF100B
:10074000000000FF140000FF00FF00001F10170052
:1007500000FC04F414141710171414F404F400002B
:10076000FF00F714141414141414F700F7141414DD
:10077000171410101F101F141414F4141010F0107C
:10078000F000001F101F0000001F14000000FC14E8
:100790000000F010F01010FF10FF141414FF1410DC
:1007A00010101F00000000F010FFFFFFFFFFF0F02F
:1007B000F0F0F0FFFFFF0000000000FFFF0F0F0F41
:1007C0000F0F3844443844FC4A4A4A347E02020639
:1007D00006027E027E0263554941633844443C046C
:1007E000407E201E2006027E020299A5E7A5991CE4
:1007F0002A492A1C4C7201724C304A4D4D30304807
:10080000784830BC625A463D3E494949007E010164
:10081000017E2A2A2A2A2A44445F444440514A44F9
:100820004040444A51400000FF0103E080FF0000C7
:1008300008086B6B083612362436060F090F0600BF
:100840000018180000001010003040FF0101001FC8
:1008500001011E00191D1712003C3C3C3C00000029
:10086000000004E010021C07123732292D29252B25
:100870003900010310E110031D07062E2C292D2E2F
:100880002E373F0000021013800A298064022A04D8
:100890000000007F2B040000007F022A04000000FB
:1008A0007F2B040000009F022A04000200812B0419
:1008B000000100A00F0180961180FFB103012C2DD3
:1008C000B203012C2DB306012C2D012C2DB40107F0
:1008D000C003A20284C101C5C2020A00C3028A2A5F
:1008E000C4028AEEC5010E20003601C83A01051F78
:1008F0001C1F1E1F1E1F1F1E1F1E1F001305D305BA
:10090000960B300C77145E25BB30363CF105B40BEA
:10091000BC0C11241FBECFEFD1E2DEBFCDBF00E083
:100920000CBF13E0A0E0B2E0E4EFFFE700E00BBF94
:1009300002C007900D92A636B107D9F72AE0A6E6C5
:10094000B3E001C01D92A834B207E1F714E0C6E895
:10095000D4E000E006C021970109802FFE010E942B
:10096000C63FCE37D10780E00807A9F70E94CE1115
:100970000C94163F0C94000086ED96E00E94222510
:100980008DE297E00C94C336CF93DF93EC018DE2B8
:1009900097E00E94E936288339834A835B836C831E
:1009A0007D838E8330E02053384F8F8190E08053D9
:1009B000984F2817390711F41EA602C081E08EA7B0
:1009C00099818885981302C01FA602C081E08FA775
:1009D0009A818985981302C018AA02C081E088AB69
:1009E0009B818A85981302C019AA02C081E089AB55
:1009F0009C818B85981302C01AAA02C081E08AAB41
:100A00009D818C85981302C01BAA02C081E08BAB2C
:100A100087E0FE01DE01179601900D928A95E1F7BD
:100A2000DF91CF91089540E050E0BA018DE693E068
:100A30000E94283640E050E0BA0186E693E00C942C
:100A40002836FC01718360830895FC01A081B18187
:100A500013968C9113979281891771F08283149663
:100A60008C911497838315968C9115978483169691
:100A70008C91858381E0089580E00895CF93DF9382
:100A8000DC01129620E030E0EC01E881F981E20F10
:100A9000F31F13821D922F5F3F4F24303105A1F7C2
:100AA000DF91CF910895CF93DF93EC0188819981F5
:100AB000DC01ED91FC910280F381E02D19958823F2
:100AC000A9F088819981DC01ED91FC910480F58188
:100AD000E02D1995882351F0888199810E94CB35AA
:100AE00088819981DF91CF910C940E36DF91CF915F
:100AF0000895CF92DF92EF92FF920F931F93CF93BF
:100B0000DF93EC018B01CB010E94530560ED72E095
:100B1000CE010E945610D8016D917C91E6E2F2E080
:100B200020E030E06D5F7F4F6B0180E090E040E0BF
:100B3000D6011D916D017F01E80EF91ED7015C9170
:100B4000151301C04F5F01968430910589F7443039
:100B500071F481E08F8387E0829FB001839F700DE5
:100B600011246C587C4FCE010E94A21007C01F8236
:100B70002F5F3F4F349625303105B1F6CE01DF911E
:100B8000CF911F910F91FF90EF90DF90CF9008953C
:100B9000CF93DF93EC010E94123688819981DF9117
:100BA000CF910C9468326AE072E084E793E00E948F
:100BB00056106FE072E08BE793E00E94561063E1FD
:100BC00072E082E893E00E94561069E172E089E8E1
:100BD00093E00E9456106EE172E080E993E00C947D
:100BE0005610CF93DF93C7E9D3E02797CE010E9439
:100BF000E80F83E0C437D807C1F7DF91CF9108959C
:100C00000F931F93CF93DF93EC018B0102960E9409
:100C1000481519830883DF91CF911F910F91089593
:100C2000CF93DF93EC0160E0888199810E948E2E42
:100C300088819981DC01ED91FC91068CF78DE02D86
:100C400060E070E0199561E0888199810E94182C1C
:100C50006FE170E088819981DF91CF910C941E2C17
:100C6000EF92FF920F931F93CF93DF93CDB7DEB731
:100C70006B970FB6F894DEBF0FBECDBF8C0161E35A
:100C800084E894E00E94D71281117AC0D8018D9136
:100C90009C91DC01ED91FC91068CF78DE02D60E0DC
:100CA00070E0199562E0F801808191810E94182C12
:100CB00060E078EFD8018D919C910E941E2C4AE053
:100CC00050E06AE070E0F801808191810E94122C6E
:100CD0006AE372E0D8018D919C910E945C0F4EE115
:100CE00050E06AE070E0F801808191810E94122C4E
:100CF00061E472E0D8018D919C910E945C0F42E307
:100D000050E06AE070E0F801808191810E94122C2D
:100D100069E472E0D8018D919C910E945C0F46E4D9
:100D200050E06AE070E0F801808191810E94122C0D
:100D300062E572E0D8018D919C910E945C0F4AE5BA
:100D400050E06AE070E0F801808191810E94122CED
:100D50006BE572E0D8018D919C910E945C0F4EE68C
:100D600050E06AE070E0F801808191810E94122CCD
:100D700063E672E0D8018D919C910E945C0FFFCFD9
:100D800068E972E084E894E00E946C1481113EC02E
:100D900023E148E952E064E874E0CE0101960E9444
:100DA000EA137801B2E0EB0EF11C8B819C81F80113
:100DB000958384838D819E81AF81B8858683978357
:100DC000A087B18789859A85AB85BC858287938703
:100DD000A487B5878DE0FE013D96D8011E9601904F
:100DE0000D928A95E1F78A8D9B8DD8015C969C9334
:100DF0008E935B97CE0101960E945B1569E672E0C7
:100E0000C7010E945C0FC7010E94AB156B960FB61D
:100E1000F894DEBF0FBECDBFDF91CF911F910F9130
:100E2000FF90EF900895CF93DF93EC014EE150E0F7
:100E300069E170E0888199810E94122C63E872E078
:100E4000888199810E945C0F60E08BE20E94640EB1
:100E500061E08AE2DF91CF910C94640EAF92BF9271
:100E6000CF92DF92EF92FF920F931F93CF93DF9376
:100E7000CDB7DEB7CF56D1090FB6F894DEBF0FBE9F
:100E8000CDBF8C015B017A0168E972E084E894E0EF
:100E90000E946C14811194C0D8018D919C91DC0149
:100EA000ED91FC91068CF78DE02D60E070E01995D6
:100EB00062E0F801808191810E94182C60E078EF57
:100EC000D8018D919C910E941E2C4AE050E06AE06E
:100ED00070E0F801808191810E94122C6AE372E037
:100EE000D8018D919C910E945C0F4EE150E06AE028
:100EF00070E0F801808191810E94122C60EE77E011
:100F0000D8018D919C910E941E2C61E0F801808196
:100F100091810E94182C62E972E0D8018D919C9118
:100F20000E945C0F42E350E06AE070E0F8018081CB
:100F300091810E94122C60E078EFD8018D919C91F4
:100F40000E941E2C62E0F801808191810E94182C81
:100F500069E472E0D8018D919C910E945C0F46E497
:100F600050E06AE070E0F801808191810E94122CCB
:100F700064EA72E0D8018D919C910E945C0F4AE571
:100F800050E06AE070E0F801808191810E94122CAB
:100F90006BE572E0D8018D919C910E945C0F4EE64A
:100FA00050E06AE070E0F801808191810E94122C8B
:100FB00063E672E0D8018D919C910E945C0FFFCF97
:100FC00023E148E952E064E874E0CE0101960E9412
:100FD000EA136801B2E0CB0ED11C8B819C81F80131
:100FE000958384838D819E81AF81B8858683978325
:100FF000A087B18789859A85AB85BC8582879387D1
:10100000A487B5878DE0FE013D96D8011E9601901C
:101010000D928A95E1F78A8D9B8DD8015C969C9301
:101020008E935B97CE0101960E945B1587E0F701D6
:10103000DE01D89601900D928A95E1F74AE06DADF8
:10104000CE01CF960E94E61087E0F701DE01D1962F
:1010500001900D928A95E1F74AE06DA9CE018A5B75
:101060009F4F0E94E61087E0F701DE019A960190FB
:101070000D928A95E1F74AE06DA5CE01835B9F4F03
:101080000E94E61087E0F701DE01939601900D9231
:101090008A95E1F72BA130E0B9016053784F4AE01F
:1010A000CE018C5A9F4F0E94141187E0F701DE0198
:1010B0005C9601900D928A95E1F74AE06D8DCE0124
:1010C000855A9F4F0E94E61087E0F701DE011196D6
:1010D00001900D928A95E1F74AE06B81CE018E591D
:1010E0009F4F0E94E610B501CE0187599F4F0E9485
:1010F000B9106CE2CE0187599F4F0E94AF11BE011B
:101100006E597F4F0E9483116CE20E94AF11BE01A5
:10111000655A7F4F0E9483116CE20E94AF11BE019D
:101120006C5A7F4F0E9483116CE20E94AF11BE0186
:10113000635B7F4F0E9483116FE372E00E94961100
:10114000BE016A5B7F4F0E9483116FE372E00E94D1
:101150009611BE01615C7F4F0E948311BC01C601E4
:101160000E944A0FCE0187599F4F0E94E80FCE017F
:101170008E599F4F0E94E80FCE01855A9F4F0E94C3
:10118000E80FCE018C5A9F4F0E94E80FCE01835B7F
:101190009F4F0E94E80FCE018A5B9F4F0E94E80F8D
:1011A000CE01CF960E94E80FC6010E94AB15C1592F
:1011B000DF4F0FB6F894DEBF0FBECDBFDF91CF91EA
:1011C0001F910F91FF90EF90DF90CF90BF90AF9065
:1011D00008956F927F929F92AF92BF92CF92DF92CB
:1011E000EF92FF920F931F93CF93DF93CDB7DEB7AC
:1011F00027970FB6F894DEBF0FBECDBF6C015B0121
:101200003A01DC018D919C91DC01ED91FC91048C03
:10121000F58DE02DE12CF12C0AE010E024E630E021
:101220004EE150E069E170E01995F5019780D60133
:101230008D919C914EE150E0992009F465C068E2DF
:1012400070E00E94122C6AEA72E0F60180819181BE
:101250000E945C0F00EE17E024E130E048E750E028
:101260006CE370E0D6018D919C910E94142948E2B4
:1012700050E068E270E0F601808191810E94122CBA
:10128000B501D6018D919C910E944A0F61E08BE2DD
:101290000E94640E60E08AE20E94640E60ED77E0D6
:1012A00080E090E00E944E0DF60180819181DC018A
:1012B000ED91FC91048CF58DE02D05E110E02EE61A
:1012C00030E04EE150E060E070E0199500E010E0A1
:1012D00024E130E048E750E06CE370E0F601808103
:1012E00091810E941429B501CE0101960E94B91086
:1012F000A301BE016F5F7F4FC6010E942E07CE0182
:1013000001960E94E80F4FC06EE170E00E94122C1F
:1013100062EB72E0D6018D919C910E945C0F48E2D5
:1013200050E06EE170E0F601808191810E94122C04
:1013300060EC72E0D6018D919C910E945C0F00E000
:1013400018EF24E130E048E750E06CE370E0F6018C
:10135000808191810E94142968EE73E080E090E022
:101360000E944E0DD6018D919C91DC01ED91FC9176
:10137000048CF58DE02DE12CF12C05E110E02EE63A
:1013800030E04EE150E060E070E0199500E010E0E0
:1013900024E130E048E750E06CE370E0F601808142
:1013A00091810E941429892D27960FB6F894DEBFEB
:1013B0000FBECDBFDF91CF911F910F91FF90EF90A6
:1013C000DF90CF90BF90AF909F907F906F900895E7
:1013D000AF92BF92CF92DF92EF92FF920F931F9343
:1013E000CF93DF93CDB7DEB7E8970FB6F894DEBFA3
:1013F0000FBECDBF6C015B01DB01D0968C918823C1
:1014000009F4BCC0F60180819181DC01ED91FC9171
:10141000048CF58DE02DE12CF12C07E010E026E4A2
:1014200030E040E050E068E270E01995F60180811C
:101430009181DC01ED91FC91048CF58DE02D23E38D
:1014400030E04AE050E060E070E0199540E050E0A4
:101450006AE070E0F601808191810E94122C87E0A1
:10146000F501DE01949601900D928A95E1F76CA149
:1014700070E06053784F4AE0CE0101960E9414114B
:1014800087E0F501DE015D9601900D928A95E1F706
:101490004AE06E8DCE0108960E94E61087E0F501C5
:1014A000DE01569601900D928A95E1F74AE0688D2B
:1014B000CE018B960E94E6106AEC72E0CE01C296D5
:1014C0000E945610BE016E5C7F4FCE010F960E94A7
:1014D000B910BE01655D7F4FCE010F960E9483114A
:1014E0006EE20E94AF11BE01685F7F4F0E948311C0
:1014F0006EE20E94AF11BE016F5F7F4F0E948311A9
:10150000BC01D6018D919C910E944A0FCE010F968D
:101510000E94E80FCE01C2960E94E80FCE018B9682
:101520000E94E80FCE0108960E94E80FCE010196B6
:101530000E94E80F4AE050E06AE070E0F601808126
:1015400091810E94122CD50116968C91B501B4E0C0
:101550008B9F600D711D1124665F7F4FCE01019638
:101560000E945610BE016F5F7F4FF601808191810E
:101570000E94FA0ECE0101960E94E80FD501D19685
:101580008C91882309F446C0F60180819181DC01A9
:10159000ED91FC91048CF58DE02DE12CF12C07E010
:1015A00010E024E130E04AE050E06DE270E019958F
:1015B0004AE050E06DE270E0F601808191810E9486
:1015C000122C87E0F501DE011F9601900D928A959D
:1015D000E1F74AE06A89CE0108960E94E610BE0152
:1015E000685F7F4FCE0101960E94B9106FE372E0F1
:1015F000CE0101960E949611BC01D6018D919C915D
:101600000E94FA0ECE0101960E94E80FCE010896C4
:101610000E94E80FF50182A9882309F445C0D6018C
:101620008D919C91DC01ED91FC91048CF58DE02D68
:10163000E12CF12C07E010E024E130E04AE050E03A
:1016400061E470E019954AE050E061E470E0F60171
:10165000808191810E94122C87E0F501DE011896AD
:1016600001900D928A95E1F74AE06C85CE018B9648
:101670000E94E610BE01655D7F4FCE0101960E947B
:10168000B9106AE3CE0101960E94AF11BC01D601E8
:101690008D919C910E94FA0ECE0101960E94E80F56
:1016A000CE018B960E94E80FF50183A9882369F18A
:1016B000D6018D919C91DC01ED91FC91048CF58D0E
:1016C000E02DE12CF12C07E010E024E130E04AE0CD
:1016D00050E065E570E019954AE050E065E570E09E
:1016E000F601808191810E94122C87E0F501DE01D4
:1016F000119601900D928A95E1F74AE050E06E81D3
:10170000D6018D919C910E94D10FE8960FB6F89466
:10171000DEBF0FBECDBFDF91CF911F910F91FF9024
:10172000EF90DF90CF90BF90AF9008956AE072E0A5
:1017300087E993E00E9456106FE072E08EE993E033
:101740000E94561063E172E085EA93E00E94561011
:1017500069E172E08CEA93E00E9456106EE172E05B
:1017600083EB93E00C945610CF93DF93CAEBD3E056
:101770002797CE010E94E80F83E0C739D807C1F749
:10178000DF91CF91089584E294E00E94BC0488ED3B
:1017900093E00E94100682EC93E00E94C80588ED59
:1017A00093E00E94300661E08AE20E94280E61E028
:1017B0008BE20C94280ECF93DF93CDB7DEB728973A
:1017C0000FB6F894DEBF0FBECDBF64E274E088EDC3
:1017D00093E00E94E80984E294E00E94C40488ED4A
:1017E00093E00E94130762EC73E0CE0101960E9421
:1017F0007905BE016F5F7F4F8AEB93E00E94C310B3
:1018000088858093C103CE0101960E94E80F82EC87
:1018100093E00E9425058823D1F06AEB73E0CE01A6
:1018200001960E94B9108091C103888744E254E078
:10183000BE016F5F7F4F88ED93E00E94E908CE0103
:1018400001960E94E80F82EC93E00E943E052896E4
:101850000FB6F894DEBF0FBECDBFDF91CF910895D4
:101860006AE072E088E594E00E9456106FE072E052
:101870008FE594E00E94561063E172E086E694E002
:101880000E94561069E172E08DE694E00E945610C5
:101890006EE172E084E794E00E94561040E050E070
:1018A000BA0184E294E00E94283640E050E0BA0198
:1018B0008BE294E00E94283680E2E2E3F4E0DF016C
:1018C0001D928A95E9F7E4E2F4E083E595E7AEE658
:1018D000B0E086879787A08BB18B8DE49FE6AEE65C
:1018E000B0E0828B938BA48BB58B84E595E7A5E65E
:1018F000B0E0868B978BA08FB18F87E595E6A4E645
:10190000B0E0828F938FA48FB58F84E598E6A5E72A
:10191000B0E0868F978FA0A3B1A386E492E7A9E6F3
:10192000B0E082A393A3A4A3B5A383E591E6A4E7C3
:10193000B0E086A397A3A0A7B1A720E34FE26EE291
:1019400085EF93E00E94652C65EF73E088ED93E0EE
:101950000E9400064CE26DE288EC93E00E942B317D
:1019600068EC73E082EC93E00E94210560ED72E088
:101970008AEB93E00C945610CF93DF938AEB93E0BD
:101980000E94E80F8AED93E00E945B15CBE7D4E05C
:101990002797CE010E94E80F84E0C835D807C1F729
:1019A000DF91CF9108951F920F920FB60F921124DD
:1019B0002F933F938F939F93AF93BF9380917C041A
:1019C00090917D04A0917E04B0917F0430917B04BE
:1019D00023E0230F2D3720F40196A11DB11D05C072
:1019E00026E8230F0296A11DB11D20937B0480934E
:1019F0007C0490937D04A0937E04B0937F04809137
:101A0000800490918104A0918204B0918304019696
:101A1000A11DB11D8093800490938104A093820442
:101A2000B0938304BF91AF919F918F913F912F917C
:101A30000F900FBE0F901F9018952FB7F8946091DC
:101A40007C0470917D0480917E0490917F042FBF6F
:101A500008953FB7F8948091800490918104A091FB
:101A60008204B091830426B5A89B05C02F3F19F0CE
:101A70000196A11DB11D3FBFBA2FA92F982F88270E
:101A8000820F911DA11DB11DBC01CD0142E0660F69
:101A9000771F881F991F4A95D1F70895CF92DF923B
:101AA000EF92FF92CF93DF936B017C010E94290D8F
:101AB000EB01C114D104E104F10479F00E94290D75
:101AC0006C1B7D0B683E7340A0F381E0C81AD108FF
:101AD000E108F108C851DC4FECCFDF91CF91FF90C6
:101AE000EF90DF90CF900895789484B5826084BDA4
:101AF00084B5816084BD85B5826085BD85B5816012
:101B000085BDEEE6F0E0808181608083E1E8F0E071
:101B10001082808182608083808181608083E0E8A0
:101B2000F0E0808181608083E1EBF0E0808184607F
:101B30008083E0EBF0E0808181608083E1E9F0E088
:101B4000808182608083808181608083E0E9F0E031
:101B5000808181608083E1EAF0E08081826080831F
:101B6000808181608083E0EAF0E080818160808311
:101B7000E1E2F1E080818260808380818160808306
:101B8000E0E2F1E0808181608083EAE7F0E080813B
:101B90008460808380818260808380818160808393
:101BA0008081806880831092C100089590E0FC01DC
:101BB0003197E131F10508F04AC08827EE58FF4F10
:101BC0008F4F0C94C63F809180008F7703C0809127
:101BD00080008F7D80938000089584B58F7702C048
:101BE00084B58F7D84BD08958091B0008F7703C048
:101BF0008091B0008F7D8093B00008958091900017
:101C00008F7707C0809190008F7D03C080919000F6
:101C1000877F8093900008958091A0008F7707C000
:101C20008091A0008F7D03C08091A000877F80936A
:101C3000A0000895809120018F7707C08091200136
:101C40008F7D03C080912001877F809320010895BC
:101C5000CF93DF9390E0FC01E858FD4F2491FC0105
:101C6000E254FD4F8491882361F190E0880F991F21
:101C7000FC01E85CFC4FC591D491FC01E25EFC4F95
:101C8000A591B491611109C09FB7F89488812095FE
:101C900082238883EC912E230BC0623061F49FB7BE
:101CA000F8943881822F809583238883EC912E2BA2
:101CB0002C939FBF06C08FB7F894E8812E2B288302
:101CC0008FBFDF91CF9108951F93CF93DF93282F7C
:101CD00030E0F901EE5CFD4F8491F901E858FD4FC9
:101CE000D491F901E254FD4FC491CC23C9F0162FD1
:101CF00081110E94D60DEC2FF0E0EE0FFF1FE25E87
:101D0000FC4FA591B4918FB7F894111105C09C9127
:101D1000ED2FE095E92302C0EC91ED2BEC938FBF02
:101D2000DF91CF911F910895CF93DF93282F30E05B
:101D3000F901EE5CFD4F8491F901E858FD4FD49113
:101D4000F901E254FD4FC491CC2391F081110E941E
:101D5000D60DEC2FF0E0EE0FFF1FEC5FFC4FA591CE
:101D6000B491EC91ED2381E090E021F480E002C099
:101D700080E090E0DF91CF910895CF92DF92EF92D3
:101D8000FF920F931F93CF93DF936C01EB017B01C5
:101D9000E40EF51E00E010E0CE15DF0561F069915C
:101DA000D601ED91FC910190F081E02DC6011995CD
:101DB000080F191FF1CFC801DF91CF911F910F912B
:101DC000FF90EF90DF90CF9008956115710579F045
:101DD000FB0101900020E9F73197AF01461B570B3B
:101DE000DC01ED91FC910280F381E02D199480E0FB
:101DF00090E00895AF92BF92CF92DF92EF92FF9260
:101E00000F931F93CF93DF936C017B01C0E0D0E071
:101E100000E010E0D70114968D919C911597C8179A
:101E2000D90788F4D601ED91FC91A080B180BE0164
:101E3000C7010E94BD11682FC601F5011995080F51
:101E4000191F2196E7CFC801DF91CF911F910F9104
:101E5000FF90EF90DF90CF90BF90AF900895DC019E
:101E6000ED91FC910190F081E02D19940F931F9357
:101E7000CF93DF93EC016DE00E942F0F8C016AE09D
:101E8000CE010E942F0F800F911FDF91CF911F91E4
:101E90000F9108950F931F93CF93DF93EC010E944E
:101EA000FA0E8C01CE010E94360F800F911FDF9138
:101EB000CF911F910F9108950F931F93CF93DF93AD
:101EC000EC010E94E50E8C01CE010E94360F800FBE
:101ED000911FDF91CF911F910F9108958F929F9243
:101EE000AF92BF92CF92DF92EF92FF920F931F9328
:101EF000CF93DF93CDB7DEB7A1970FB6F894DEBFCF
:101F00000FBECDBF6C01142FE52FCB01022F19A2FC
:101F1000223008F40AE07E0121E2E20EF11C802E5C
:101F2000912CA12CB12C612F7E2FA50194010E9430
:101F3000853F029F1019112481E0E81AF1081A3038
:101F400014F4105D01C0195CF7011083122FE32F08
:101F5000CA01232B242B252B31F7B701C6010E9480
:101F6000E50EA1960FB6F894DEBF0FBECDBFDF9190
:101F7000CF911F910F91FF90EF90DF90CF90BF9086
:101F8000AF909F908F9008952115310541F4DC01A9
:101F9000ED91FC910190F081E02D642F19940C9447
:101FA0006E0F0F931F93CF93DF93EC019A01462F8F
:101FB00050E060E070E00E94C40F8C01CE010E94EE
:101FC000360F800F911FDF91CF911F910F910895D0
:101FD000FC01808191810C94FE38CF93DF93EC015A
:101FE00088819981009711F00E94FE381982188229
:101FF0001D821C821B821A82DF91CF9108950F935C
:102000001F93CF93DF93EC018B016F5F7F4F88812C
:1020100099810E948037009731F0998388831B83D0
:102020000A8381E001C080E0DF91CF911F910F9181
:102030000895CF93DF93EC0188819981892B29F052
:102040008A819B818617970760F4CE010E94FF0F5B
:10205000882341F08C819D81892B19F4E881F981D5
:10206000108281E0DF91CF910895EF92FF920F935C
:102070001F93CF93DF93EC017B018A01BA010E9489
:102080001910811104C0CE010E94ED0F07C01D83FD
:102090000C83B701888199810E943A3FCE01DF917C
:1020A000CF911F910F91FF90EF900895FC01118245
:1020B00010821382128215821482168261157105B4
:1020C00051F0FB0101900020E9F73197AF01461B69
:1020D000570B0C94351008950F931F93CF93DF93F4
:1020E0008C01EB01FC0180819181009799F0428184
:1020F00053812C813D814217530750F068817981CB
:102100000E943A3F8C819D81F8019583848313C09E
:102110000E94FE3888819981F801918380838A81A9
:102120009B81938382838C819D8195838483198293
:1021300018821B821A821D821C82DF91CF911F910F
:102140000F910895CF93DF93EC01FB01861797075A
:1021500061F0608171816115710529F044815581BB
:102160000E94351002C00E94ED0FCE01DF91CF9189
:102170000895FC011182108213821282158214824A
:1021800016820C94A210CF93DF93EC018617970769
:1021900011F00E946C10CE01DF91CF910895CF9382
:1021A000DF93EC016115710559F0FB0101900020EE
:1021B000E9F73197AF01461B570B0E94351002C05B
:1021C0000E94ED0FCE01DF91CF9108950F931F93E1
:1021D000CF93DF93CDB7DEB729970FB6F894DEBF64
:1021E0000FBECDBF8C01862FF801118210821382A1
:1021F000128215821482168250E0BE016F5F7F4FFB
:1022000090E00E94503FBE016F5F7F4FC8010E9467
:10221000CF1029960FB6F894DEBF0FBECDBFDF9169
:10222000CF911F910F9108950F931F93CF93DF9339
:10223000CDB7DEB761970FB6F894DEBF0FBECDBF46
:102240008C01CB01F8011182108213821282158257
:102250001482168250E0BE016F5F7F4F0E94503F94
:10226000BE016F5F7F4FC8010E94CF1061960FB60D
:10227000F894DEBF0FBECDBFDF91CF911F910F91BC
:102280000895EF92FF920F931F93CF93DF93FC017A
:10229000248135816115710511F480E019C0411563
:1022A0005105A9F07B01EC018A01020F131FB8014F
:1022B0000E941910882389F3288139818C819D819E
:1022C000B701820F931F0E943A3F1D830C8381E068
:1022D000DF91CF911F910F91FF90EF900895CF93D1
:1022E000DF931F921F92CDB7DEB769831A8241E058
:1022F00050E0BE016F5F7F4F0E9441110F900F9021
:10230000DF91CF910895CF93DF93EC01FB014481DE
:102310005581608171810E944111811103C0CE01FC
:102320000E94ED0FCE01DF91CF910895CF93DF93FF
:10233000EC016115710561F0FB0101900020E9F7E6
:102340003197AF01461B570B0E944111811103C009
:10235000CE010E94ED0FCE01DF91CF910895CF9372
:10236000DF93EC010E946F11811103C0CE010E9426
:10237000ED0FCE01DF91CF910895FC0124813581CD
:102380006217730748F480819181009729F0FC015E
:10239000E60FF71F8081089580E008950E94740D74
:1023A0000E94C30BC9E1DBE30E94DB0B2097E1F342
:1023B0000E94193BF9CF08951F93CF93DF93CDB7B8
:1023C000DEB76D970FB6F894DEBF0FBECDBFAB0181
:1023D0001C821B8227EE32E03A8329831E8221E091
:1023E000BC01CE0101960E94461A182F882321F0C5
:1023F000CE0101960E941219812F6D960FB6F894A6
:10240000DEBF0FBECDBFDF91CF911F9108950F9317
:102410001F93CF93DF93DA01EB0128813981FC010F
:10242000E20FF31F40814F3211F42F5F3F4F8D01B8
:10243000E0E0F0E0AC01420F531FEA0158815F3247
:1024400059F0552349F031962F5F3F4FE8015993DA
:102450008E01EC30F10571F7EA0FFB1F1082FC01D1
:10246000E20FF31F40814F3211F42F5F3F4FFB010A
:1024700031832083FC01E20FF31F81E090819111F1
:1024800001C080E0DF91CF911F910F9108954F928D
:102490005F926F927F928F929F92AF92BF92CF92F4
:1024A000DF92EF92FF920F931F93CF93DF93CDB7FD
:1024B000DEB7C954D1090FB6F894DEBF0FBECDBF49
:1024C0005C016B013A01490119A218A287EE92E062
:1024D0009F8F8E8F1BA21C821B829A8389831E82F0
:1024E0002A961FAE1EAE2A978B017E018EE1E80E62
:1024F000F11C44244394AE01455C5F4FBE01685B10
:102500007F4FC5010E940712582E482F4425940181
:10251000BE01655C7F4FC801F3011995811108C0A8
:102520000C151D0519F0C8010E94121980E027C082
:102530005520B9F021E0AE01455C5F4FB801C701FD
:102540000E94461A582E0C151D0599F0C8010E94CC
:102550001219552059F3902F812F8701E92EF82E5B
:10256000CACF0C151D0519F0C8010E94121981E08F
:1025700006C08823D9F28E010F5F1F4FECCFC75BD7
:10258000DF4F0FB6F894DEBF0FBECDBFDF91CF9106
:102590001F910F91FF90EF90DF90CF90BF90AF9081
:1025A0009F908F907F906F905F904F9008950F93C2
:1025B0001F93CF93DF93EC01462F61E00E94BA1D79
:1025C000882391F08E01045F1F4F41E0BE01C801D6
:1025D0000E947023882351F0B801CE018A960E9490
:1025E000961691E081110AC090E008C040E0BE015B
:1025F000C8010E9470238823B9F3EECF892FDF91A1
:10260000CF911F910F910895FC01DB0112968D91DE
:102610009C9113979383828387EE92E091838083CA
:1026200014968C911497848315968C9115978583B5
:1026300016964D915D916D917C91199746835783C4
:10264000608771871A964D915D916D917C911D9770
:1026500042875387648775871E964D915D916D9172
:102660007C91519746875787608B718B52968C91DE
:102670005297828B53964D915D916D917C915697B7
:10268000438B548B658B768B57964D915D916D91F5
:102690007C915A97478B508F618F728F5B968D918B
:1026A0009C915C97948F838F08954F925F926F9265
:1026B0007F928F929F92AF92BF92CF92DF92EF92D2
:1026C000FF920F931F93CF93DF93CDB7DEB7C7541D
:1026D000D1090FB6F894DEBF0FBECDBF6C015A0111
:1026E0004901665D7F4F7E018EE1E80EF11CC70156
:1026F0000E9404131C821B8287EE92E09A838983D6
:102700001E828501FE0131963F0127016FE270E0D4
:10271000C8010E942F3F0097D9F1F80120812F3284
:1027200019F40F5F1F4FF2CF801B8D3008F08CE043
:10273000E82EF12CA701B801CE01CB960E94413FB3
:10274000EBE3F0E0EC0FFD1FEE0DFF1D1082C30167
:102750000E94121921E0AE01455C5F4FB201C30136
:102760000E94461A811109C0F6011382128287EE77
:1027700092E091838083158214C00E0D1F1DC2014B
:102780000E941219942D852D2301692E782EBECF1B
:102790000A191B09F40111830083B201C6010E94CA
:1027A0000413C601C95BDF4F0FB6F894DEBF0FBE3E
:1027B000CDBFDF91CF911F910F91FF90EF90DF90F0
:1027C000CF90BF90AF909F908F907F906F905F90D1
:1027D0004F900895CF92DF92FF920F931F93CF9364
:1027E000DF93CDB7DEB7C955D1090FB6F894DEBF78
:1027F0000FBECDBF6C018A01F22E9E01285A3F4FB9
:10280000CE01CB960E9455136A968EAD9FAD6A9706
:10281000080F191FF801808181110AC0BE01655C93
:102820007F4FCE0101960E94041341ED52E03EC05D
:1028300019A218A287EE92E09F8F8E8F1BA221967D
:102840008FAD2197811104C0C6010E94481534C084
:1028500082502F2DA801823048F46EEA74E0CE0138
:102860004E960E94461A81110EC0EECFBE01655CE5
:102870007F4FCE014E960E94461A882329F3CE013F
:10288000CB960E9412199F2D967041F049A95AA922
:102890006BA97CA9CE014E960E943518BE01625EDE
:1028A0007F4FCE0101960E940413A801BE016F5F05
:1028B0007F4FC6010E941315C601C75ADF4F0FB6DE
:1028C000F894DEBF0FBECDBFDF91CF911F910F9166
:1028D000FF90DF90CF900895FB01BC01665D7F4FB4
:1028E00020E030E04CED51E1CF010C944712E4E8D8
:1028F000F4E0158216821186138682E090E0A0E053
:10290000B0E084879587A687B78713A215A614A67B
:1029100087EE92E093A782A717A60895CF93DF933F
:102920001F92CDB7DEB76983DC01ED91FC91028087
:10293000F381E02D41E050E0BE016F5F7F4F1995BC
:102940000F90DF91CF910895CF93DF93EC01898DA4
:102950009A8D009739F481E090E09B838A8380E030
:1029600090E00BC0FC01138212820E94341BE98D9F
:10297000FA8D22813381232B71F7DF91CF91089556
:10298000FC01818D928D009711F00C94CB18089565
:10299000CF93DF931F92CDB7DEB741E050E0BE0189
:1029A0006F5F7F4F0E94E716019719F4898190E0CD
:1029B00002C08FEF9FEF0F90DF91CF910895FC0140
:1029C000818D928D009711F00C94C8148FEF9FEFBA
:1029D00008950F931F93CF93DF93FC01818D928D08
:1029E0000097B9F0EF010E94C8148C010F3F8FEFE0
:1029F000180791F0898D9A8DFC0142855385648575
:102A0000758541505109610971090E943518C80145
:102A100005C080E090E002C08FEF9FEFDF91CF9183
:102A20001F910F910895EF92FF920F931F93CF93F1
:102A3000DF93EC017B018A011B821A8288EE93E00E
:102A4000A0E0B0E08C839D83AE83BF8387ED92E0EE
:102A5000998388838DE190E00E9469389A8F898FED
:102A6000009779F02DE1F701DC0101900D922A9594
:102A7000E1F74CE050E0B801CE010C960E94413FD6
:102A8000188EDF91CF911F910F91FF90EF900895D5
:102A9000FC011382128288EE93E0A0E0B0E0848310
:102AA0009583A683B78387ED92E091838083128E0E
:102AB000118E148608950895DC015996ED91FC91CC
:102AC0005A97309729F06285738584859585089596
:102AD0006FEF7FEFCB010895DC015996ED91FC91EA
:102AE0005A97309729F06389748985899689089562
:102AF00060E070E0CB010895CF92DF92EF92FF92F9
:102B0000CF93DF93FC01218D328D232BD9F0EC0183
:102B10000E946C156B017C01CE010E945C15A7011F
:102B20009601261B370B480B590BDA01C901811599
:102B300030E89307A105B10538F08FEF9FE7A0E0DB
:102B4000B0E002C080E090E0DF91CF91FF90EF9085
:102B5000DF90CF900895CF93DF93EC01898D9A8D0C
:102B6000009741F00E941219898D9A8D0E94FE38BB
:102B70001A8E198EDF91CF910895CF93DF93EC01D8
:102B80009C012A5F3F4F41E050E060E070E08B8D98
:102B90009C8D0E9405228823A1F08F89988DA98D94
:102BA000BA8D892B8A2B8B2B59F48E819F81A88516
:102BB000B9858F8B988FA98FBA8F8C8180688C8311
:102BC00081E0DF91CF910895CF92DF92EF92FF9253
:102BD0001F93CF93DF93EC010E94BD15811102C0BA
:102BE00080E04AC0EB8DFC8DCE80DF80E884F984E4
:102BF00082E0C81AD108E108F108058404C0CC0CB1
:102C0000DD1CEE1CFF1C0A94D2F786859785A089EF
:102C1000B189C80ED91EEA1EFB1E148181E0C81AB4
:102C2000D108E108F108112361F0C701B601610F75
:102C3000711D811D911D0E945420882389F211501D
:102C4000F2CFEB8DFC8D80E092E0A0E0B0E0058457
:102C500004C0880F991FAA1FBB1F0A94D2F74B8983
:102C60005C896D897E89840F951FA61FB71F8B8B8A
:102C70009C8BAD8BBE8B81E0DF91CF911F91FF903C
:102C8000EF90DF90CF900895CF93DF93EC01462F24
:102C90006E857F85888999890E941920882341F053
:102CA0008A8920E2829FC00111248A529B4F02C070
:102CB00080E090E0DF91CF910895FB019B01255FBB
:102CC0003F4F40E24193E217F307E1F7DC0190E068
:102CD00027E08D91882319F18E3219F0E2E5F3E0B7
:102CE00008C02A3009F198E02AE0F3CF319638176E
:102CF000D9F034913111FACF2917B0F03FED380FE8
:102D00003E3590F431E0390FFB01E90FF11D9FE9E9
:102D1000980F9A3108F480528083932FDACF81E0A4
:102D2000FB019081903209F480E008950F931F9386
:102D3000CF93DF93FC012581222311F080E042C074
:102D40008B01EC01FB0187898031B1F482E08D8336
:102D50001F8A188E198E1A8E808D918DA0E0B0E09A
:102D600025E0880F991FAA1FBB1F2A95D1F78B8BCF
:102D70009C8BAD8BBE8B15C0803201F783E08D83B9
:102D8000FB01428D538D648D758D4F8B588F698FEC
:102D90007A8F9E012D5E3F4FC8010E94FC20882340
:102DA00069F21C8F0B8F81E08C831E821F82188634
:102DB00019861A861B861C861D861E861F86188A03
:102DC000198A1A8ADF91CF911F910F9108952F923E
:102DD0003F924F925F926F927F928F929F92AF92AB
:102DE000BF92CF92DF92EF92FF920F931F93CF93F8
:102DF000DF93EC015B014A018D81811103C08FEFEC
:102E00009FEFD7C08C8180FFFACF4B885C886D889C
:102E10007E884A855B856C857D85C401A0E0B0E035
:102E200093018201041B150B260B370B081719079A
:102E30002A073B0718F44201841A950A24011E014F
:102E400026E0220E311C4114510409F47EC04A854B
:102E50005B856C857D856A0181E0D822ED818A01E0
:102E60009B0189E036952795179507958A95D1F7A7
:102E70008B8D9C8DE23061F4FC01828D938DA48D4D
:102E8000B58DBC01CD01600F711F821F931F3FC024
:102E9000FC0174807A947022C114D104C9F47110B9
:102EA00017C0452B462B472B49F48F89988DA98D48
:102EB000BA8D8E839F83A887B9870AC04E815F81B0
:102EC0006885798591010E947820882309F497CF3D
:102ED000EB8DFC8D8E819F81A885B9850297A10914
:102EE000B109058404C0880F991FAA1FBB1F0A944B
:102EF000D2F74685578560897189840F951FA61F73
:102F0000B71FBC01CD01670D711D811D911D20E012
:102F100032E02C193D0932012415350508F4390138
:102F20002C8126FD04C06114F2E07F0679F5009142
:102F300000021091010220910202309103026017F9
:102F400071078207930719F421C0C40132C07501CB
:102F500083019601AB01BC018091D4049091D5040A
:102F60000E943C1F882309F44ACFA60CB71C8A850F
:102F70009B85AC85BD85860D971DA11DB11D8A87DA
:102F80009B87AC87BD87461857085DCF40E00E94FD
:102F90001920882309F433CFF601EA52FB4FD501FB
:102FA000CF01860D971DE817F907F9F221912D93AE
:102FB000FACFDF91CF911F910F91FF90EF90DF90AB
:102FC000CF90BF90AF909F908F907F906F905F90C9
:102FD0004F903F902F900895FF920F931F93CF93A0
:102FE000DF931F92CDB7DEB7FC012581223018F4A4
:102FF00080E090E033C08C01FC01428553856485FC
:10300000758585E076956795579547958A95D1F7AB
:10301000F42FFF70FF2E41E050E0BE016F5F7F4F45
:10302000C8010E94E716019719F4898190E002C057
:103030008FEF9FEF0196E1F2F80182859385A485D9
:10304000B5854F96A11DB11D82879387A487B5874B
:10305000F0E2FF9EC00111248A529B4F0F90DF9136
:10306000CF911F910F91FF9008958F929F92AF92F1
:10307000BF92CF92DF92EF92FF920F931F93CF9365
:10308000DF93EC018D81811102C080E077C00B8954
:103090001C892D893E890417150726073707A8F3D1
:1030A0006A017B01823029F4CA86DB86EC86FD86C4
:1030B0000DC0C114D104E104F10451F41E821F8239
:1030C000188619861A861B861C861D8681E056C0C6
:1030D0008A849B84AC84BD84EB8DFC8D258530E097
:1030E000275F3F4FB501A4014150510961097109A2
:1030F000022E04C076956795579547950A94D2F7A6
:10310000D701C6010197A109B10904C0B695A795D9
:10311000979587952A95D2F784179507A607B7073D
:1031200020F089288A288B2849F44F89588D698D89
:103130007A8D4E835F836887798704C0841B950BE3
:10314000A60BB70B4C015D018E010A5F1F4F811466
:103150009104A104B10409F4A7CF4E815F81688571
:10316000798598018B8D9C8D0E94782091E0891A39
:103170009108A108B1088111EACF87CFDF91CF91E3
:103180001F910F91FF90EF90DF90CF90BF90AF9085
:103190009F908F9008950F931F93CF93DF93EC012F
:1031A0008D818823C9F18C8187FF30C061E0CE0119
:1031B0000E9444168C01892B79F18D81823048F46C
:1031C0008B899C89AD89BE89F801848F958FA68FE4
:1031D000B78F8F89988DA98DBA8DF801938F828FC3
:1031E000B58BA48BE091CD04F091CE04309759F0CB
:1031F000B8016A5E7F4FC80148961995F801808D25
:10320000918D938B828B8C818F778C83DF91CF9183
:103210001F910F910C94DE1F80E0DF91CF911F91E1
:103220000F910895CF93DF93EC010E94CB18882370
:1032300011F01D8281E0DF91CF9108954F925F924E
:103240006F927F928F929F92AF92BF92EF92FF9276
:103250000F931F93CF93DF9300D01F92CDB7DEB7AC
:10326000FC0185818130E9F4848181FF1AC0838962
:103270009489A589B68984179507A607B70788F0AA
:10328000892B8A2B8B2B09F479C04A015B017F01C2
:103290004284538464847584CF010E94351881115F
:1032A00002C080E06CC0F701838D948D811491047D
:1032B000A104B10471F44789508D618D728D0E9413
:1032C0001A23882371F3F701178A108E118E128E3C
:1032D0003AC0F70146815781608571859E012F5F55
:1032E0003F4F0E9478208823E1F249815A816B8107
:1032F0007C81F701838D948DFC012789203129F091
:1033000008EF1FEF2FEF3FE004C008EF1FEF20E0B2
:1033100030E04017510762077307A8F40E941A2390
:10332000882309F4BECFF7014681578160857185F6
:103330000FEF1FEF2FEF3FE0838D948D0E946521EB
:10334000882309F4AECFF701838A948AA58AB68AC6
:10335000848180688483C7010E94CB18882309F484
:10336000A0CFB501A401481459046A047B0410F4E9
:10337000B301A201C7010E94351801C081E00F907E
:103380000F900F900F90DF91CF911F910F91FF90B1
:10339000EF90BF90AF909F908F907F906F905F90D5
:1033A0004F9008951F93CF93DF93EC0180E2689FC5
:1033B000F00111249F012A523B4FD9011B969C9189
:1033C000917129F0842F827411F080E05BC0142F7A
:1033D0006A8B8091000290910102A0910202B0914B
:1033E00003028E879F87A88BB98BEA52FB4F4489D3
:1033F000558960E070E0BA01552744274F8B588FFC
:10340000698F7A8F828D938DA0E0B0E0482B592B85
:103410006A2B7B2B4F8B588F698F7A8FD9011B9624
:103420008C91887151F4848D958DA68DB78D8B8B81
:103430009C8BAD8BBE8B81E00DC0803131F69E013F
:103440002D5E3F4F8B8D9C8D0E94FC20882309F4BC
:10345000BCCF84E08D83812F8F708C831E821F826E
:10346000188619861A861B861C861D8616FF09C0BB
:1034700040E050E0BA01CE01DF91CF911F910C9452
:103480001E1981E0DF91CF911F910895CF92DF92B5
:10349000EF92FF920F931F93CF93DF93CDB7DEB7D9
:1034A0002C970FB6F894DEBF0FBECDBFFC0135815F
:1034B0003111C2C0D22E8B017C01BE016F5F7F4FE4
:1034C000CA010E945D16882309F4B6C0F801838DF5
:1034D000948DF701948F838FF801168217821086DE
:1034E0001186128613861486158630E0F8018285CF
:1034F0009385A485B5854389548965897689841720
:103500009507A607B70708F041C025E0B695A7952F
:10351000979587952A95D1F7F82FFF70CF2EC80180
:103520003C870E94EC173C85009709F485C0FC019C
:103530002081222309F484C0253E99F04BE050E01D
:10354000BC01CE0101963C870E94193F3C85892B26
:1035500069F68D2D8073803309F46EC04D2D6C2D6E
:1035600067C031116BC0F701C28A409100025091CF
:103570000102609102027091030246875787608BB7
:10358000718BFC01808131E08111B0CF8D2D827172
:10359000823109F051C0332341F061E0C7010E943C
:1035A00044168C01892B79F447C0F801858182305B
:1035B00009F442C0C8010E94E4158823E9F1F7012B
:1035C000128A06ED14E080E2F80111928A95E9F77B
:1035D0008BE0FE013196D80101900D928A95E1F7BA
:1035E000E091CD04F091CE04309739F0B801625FDC
:1035F0007F4FC8014096199509C081E298E2F80111
:10360000918B808B80E098E097878687F80180898E
:103610009189938B828B918F808F86859785978BED
:10362000868B0E94DE1F882339F04D2DF7016289B9
:10363000C7010E94D21909C080E007C031E056CF0F
:10364000332309F490CF31E0A1CF2C960FB6F89434
:10365000DEBF0FBECDBFDF91CF911F910F91FF90C5
:10366000EF90DF90CF9008952F923F924F925F920C
:103670006F927F928F929F92AF92BF92CF92DF9282
:10368000EF92FF920F931F93CF93DF9300D01F927F
:10369000CDB7DEB78C016B013A01DC0115968C9138
:1036A00015978130C9F414968C9181FF15C082FF63
:1036B0001DC0F8014389548965897689828593857F
:1036C000A485B58584179507A607B70779F0C801C3
:1036D0000E94351881110AC081E090E0D80113964C
:1036E0009C938E93129780E090E048C1430184C080
:1036F000D8015B968D919C915C97FC0154802FEFD3
:10370000250D1A012B0139E05694479437942794DC
:103710003A95D1F7522E52207A01F1E0FF2255203E
:1037200009F476C080E092E08E199F095401881553
:10373000990508F45C01D8015B962D913C915C974A
:1037400016968D919D910D90BC91A02D0297A10987
:10375000B109F901058404C0880F991FAA1FBB1F76
:103760000A94D2F74685578560897189840F951F21
:10377000A61FB71F9C01AD01250D311D411D511D17
:1037800019012A01A11432E0B30609F088C0809122
:10379000000290910102A0910202B09103028215F1
:1037A0009305A405B50559F48FEF9FEFDC018093D5
:1037B000000290930102A0930202B09303029601CB
:1037C000B201A1018091D4049091D5040E94901F70
:1037D000882309F481CF9EEFD91A8A189B08F80133
:1037E00082859385A485B5858A0D9B1DA11DB11D7C
:1037F00082879387A487B587D8011A964D915D91EA
:103800006D917C911D978114910409F071CF87C04F
:10381000E114F10409F086CF16964D915D916D91FA
:103820007C911997411551056105710559F4579619
:103830008D919D910D90BC91A02D0097A105B10592
:1038400041F521C09E012F5F3F4F0E9478208823C1
:1038500009F44ACF89819A81AB81BC81F801238D1B
:10386000348DF9012789203129F048EF5FEF6FEFA0
:103870007FE004C048EF5FEF60E070E084179507D9
:10388000A607B70730F0C8010E94BD1581114ACFC5
:1038900023CFF80186839783A087B18743CFE114B4
:1038A000F10429F5D8011A964D915D916D917C91A5
:1038B0001D9753968D919D910D90BC91A02D481709
:1038C00059076A077B0798F00E94DE1F882309F4D6
:1038D00003CF2092000230920102409202025092E5
:1038E00003028091D30481608093D30408C041E037
:1038F000C201B1010E941920882309F4EDCED6013E
:10390000F701EA52FB4FCF018A0D9B1DE817F9071B
:1039100019F02D912193FACFCA0CDB1C5ECF539680
:10392000CD90DD90ED90FC90569714968C91C41636
:10393000D506E606F70640F4F801438B548B658BF9
:10394000768B806884830DC02091CD043091CE04A5
:10395000232B39F06114710421F08068D80114968A
:103960008C93F801848183FD02C0C30107C0C801A4
:103970000E94CB18882309F4AFCEF7CF0F900F9099
:103980000F900F90DF91CF911F910F91FF90EF90CB
:10399000DF90CF90BF90AF909F908F907F906F906F
:1039A0005F904F903F902F900895CF93DF931F9299
:1039B000CDB7DEB7698341E050E0BE016F5F7F4F56
:1039C0000E94341B0F90DF91CF9108958EBD0DB4EE
:1039D00007FEFDCF08958FEF0E94E61C8EB5089577
:1039E00061E0FC0184810C94640E60E0FC01848140
:1039F0000C94640ECF93DF93FC0186818823D1F071
:103A00008FEF8EBD4FEF878190859C012F5F3F4FD9
:103A1000308727838130924028F40DB407FEFDCF14
:103A20004EBDF1CF0DB407FEFDCFEF01CF010E94D7
:103A3000F01C1E82DF91CF910895673028F026E1B7
:103A4000FC01258380E008958DB560FD02C06630DD
:103A500011F48E7F01C081608DBD8CB58C7F8CBDD3
:103A60009CB562FD02C080E001C082E06695617095
:103A7000692B862B8CBD81E008950F931F93CF9304
:103A8000DF93EB010E941D0D8B010E94EB1C8F3F09
:103A900049F00E941D0D601B710B6C177D07A8F388
:103AA00080E001C081E0DF91CF911F910F910895D7
:103AB000CF92DF92FF920F931F93CF93DF9300D0AB
:103AC0001F92CDB7DEB76C01F62E29833A834B8364
:103AD0005C830E94FA1CC6010E94F51C6CE271E036
:103AE000C6010E943D1D8F2D80640E94E61C08E1E6
:103AF00010E05C814B813A812981DA01C901002EF5
:103B000004C0B695A795979587950A94D2F729830F
:103B10003A834B835C830E94E61C0850110929817B
:103B20003A814B815C81083F8FEF180731F7FF2006
:103B300029F0E8E0FE1204C087E803C085E901C06F
:103B40008FEF0E94E61C10E00E94EB1CF6018287BA
:103B500087FF04C01F3F11F01F5FF6CF0F900F903B
:103B60000F900F90DF91CF911F910F91FF90DF90F9
:103B7000CF9008958F929F92AF92BF92EF92FF9253
:103B80000F931F93CF93DF93EC01E62E1B861986CC
:103B90001E821D824C830E941D0D8B0161E08C8171
:103BA0000E94280ECE010E94F01C60E082E30E9479
:103BB000280E61E083E30E94280E61E084E30E9406
:103BC000280E61E085E30E94280E61E085E30E94F3
:103BD000640E83E58CBD8DB58E7F8DBD2AE0F22EFF
:103BE0008FEF0E94E61CFA94F110FACFCE010E94EA
:103BF000F51C20E030E0A90160E0CE010E94581DD4
:103C0000F82E8A8781E0F81649F00E941D0D601B8E
:103C1000710B613D774068F381E04CC02AEA31E0E6
:103C200040E050E068E0CE010E94581D82FF02C0D3
:103C3000FB860EC094E0F92E0E94EB1C8A87FA9452
:103C4000F110FACF8A3A11F082E034C082E08B871B
:103C50008B85823021F0812C912C540105C0812C60
:103C6000912CA12C80E4B82E20E030E0A90167E37C
:103C7000CE010E94581DA501940169E2CE010E9467
:103C8000581D8A87882349F00E941D0D601B710B07
:103C9000613D774048F388E00DC08B85823039F56F
:103CA00020E030E0A9016AE3CE010E94581D88237C
:103CB00089F086E08D83CE010E94F01C80E0DF91C8
:103CC000CF911F910F91FF90EF90BF90AF909F9079
:103CD0008F9008950E94EB1C807C803C11F483E05F
:103CE0008B870E94EB1C0E94EB1C0E94EB1CCE01F8
:103CF0000E94F01C6E2DCE01DF91CF911F910F918C
:103D0000FF90EF90BF90AF909F908F900C941D1DEF
:103D10000F931F93CF93DF93EC010E941D0D8B0136
:103D20000E94EB1C8A878F3F49F40E941D0D601B87
:103D3000710B6D327140A0F38FE003C08E3F39F0FC
:103D40008DE08D83CE010E94F01C80E001C081E0F7
:103D5000DF91CF911F910F910895CF92DF92EF9253
:103D6000FF920F931F93CF93DF93EC016901C8017A
:103D7000820F931F8130924008F06FC08E8188239C
:103D800071F088819981AA81BB81481759076A0718
:103D90007B0729F48F819885C816D90618F54883C2
:103DA00059836A837B838B85833039F089E0440FA4
:103DB000551F661F771F8A95D1F79A01AB0161E104
:103DC000CE010E94581D882319F083E08D8345C0E1
:103DD000CE010E94881E882309F43FC018861F82E6
:103DE00081E08E838FEF8EBD2FEF8F8198858C15AC
:103DF0009D0550F40DB407FEFDCF2EBD8F81988533
:103E0000019698878F83F1CFC8010197F7014FEF93
:103E10009F012E193F092817390738F40DB407FE02
:103E2000FDCF2EB521934EBDF3CF0DB407FEFDCFD0
:103E30002EB5F701E80FF91F20838F819885080FB1
:103E4000191F18870F838985882319F001151240DF
:103E500048F0CE010E94FA1C05C0CE010E94F01C61
:103E600080E001C081E0DF91CF911F910F91FF9021
:103E7000EF90DF90CF900895EF92FF920F931F93F2
:103E80000115110519F00E94AD1E01C081E01F91BE
:103E90000F91FF90EF900895EF92FF920F931F9371
:103EA000790100E012E020E030E00E94AD1E1F9199
:103EB0000F91FF90EF900895CF93DF93EC016EBDCB
:103EC00020E030E00DB407FEFDCFFA01E20FF31F52
:103ED00080818EBD0DB407FEFDCF81818EBD2E5F2A
:103EE0003F4F211582E0380769F70DB407FEFDCF7B
:103EF0008FEF0E94E61C8FEF0E94E61C0E94EB1CD5
:103F00008A87982F9F71953039F081E18D83CE019A
:103F10000E94F01C80E001C081E0DF91CF91089504
:103F20000F931F93CF93DF93EC0189014115510546
:103F30006105710511F482E132C08B85833039F05F
:103F400089E0440F551F661F771F8A95D1F79A01A4
:103F5000AB0168E1CE010E94581D882311F084E076
:103F60001EC0A8016EEFCE010E945C1F8823C1F025
:103F700068E572E0CE010E943D1D811102C085E11D
:103F80000EC020E030E0A9016DE0CE010E94581D76
:103F9000811104C00E94EB1C882339F084E18D83D9
:103FA000CE010E94F01C80E004C0CE010E94F01CF3
:103FB00081E0DF91CF911F910F9108958091D304FB
:103FC0008823A9F140910002509101026091020200
:103FD0007091030226ED34E08091D4049091D504D1
:103FE0000E94901F811102C080E008954091CF048B
:103FF0005091D0046091D1047091D20441155105C3
:104000006105710591F026ED34E08091D404909122
:10401000D5040E94901F882339F31092CF04109288
:10402000D0041092D1041092D2041092D30481E0F3
:104030000895CF92DF92EF92FF92CF936B017C01B4
:10404000C42F8091000290910102A0910202B091D0
:1040500003028C159D05AE05BF05D1F00E94DE1F41
:10406000811102C080E01AC026ED34E0B701A6013C
:104070008091D4049091D5040E944C1F882391F321
:10408000C0920002D0920102E0920202F09203027A
:104090008091D304C82BC093D30481E0CF91FF90CB
:1040A000EF90DF90CF900895CF92DF92EF92FF9242
:1040B0006B017C010E94DE1F8823A9F0E6EDF4E08D
:1040C000119286E0E63DF807D9F7C0920002D0923F
:1040D0000102E0920202F09203028091D304816017
:1040E0008093D30481E0FF90EF90DF90CF9008950C
:1040F0008F929F92AF92BF92CF92DF92EF92FF92F8
:104100000F931F93CF93DF93FC0181859285A38545
:10411000B4850196A11DB11D84179507A607B707A1
:1041200010F480E05CC083899489A589B689C78929
:10413000C03129F4852E962EA72EBB2409C04A0132
:104140005B01C7E0B694A79497948794CA95D1F77A
:10415000E9016A017B018F01BC01CD01680D791D68
:104160008A1D9B1D8090000290900102A090020287
:10417000B0900302681579058A059B0599F4F8014A
:1041800087898031A9F4B701A601552766277727CB
:10419000440F551FFA01EA52FB4F80819181A0E044
:1041A000B0E018C040E00E9419208111E8CFB9CFDB
:1041B000B701A6014F77552766277727440F551F6C
:1041C000440F551FFA01EA52FB4F80819181A28171
:1041D000B381BF7088839983AA83BB8381E0DF9119
:1041E000CF911F910F91FF90EF90DF90CF90BF90F4
:1041F000AF909F908F9008954F925F926F927F92B1
:10420000AF92BF92CF92DF92EF92FF920F931F93E4
:10421000CF93DF9300D01F92CDB7DEB78C014983D7
:104220005A836B837C835901C12CD12C7601412C9C
:1042300082E0582E612C712C49815A816B817C81DE
:104240009E012F5F3F4FC8010E947820882351F1C3
:10425000D301C201F801058404C0880F991FAA1F69
:10426000BB1F0A94D2F7C80ED91EEA1EFB1E498155
:104270005A816B817C818789803129F088EF9FEF9B
:10428000AFEFBFE004C088EF9FEFA0E0B0E04817B9
:1042900059076A077B0780F2F501C082D182E2826A
:1042A000F38281E00F900F900F900F90DF91CF91EC
:1042B0001F910F91FF90EF90DF90CF90BF90AF9044
:1042C0007F906F905F904F9008954F925F926F92A2
:1042D0007F928F929F92AF92BF92CF92DF92EF9296
:1042E000FF920F931F93CF93DF93EC016A017B0141
:1042F00028013901423051056105710510F480E053
:1043000073C089859A85AB85BC850196A11DB11DB9
:1043100084179507A607B70790F38B889C88AD880C
:10432000BE888F89803129F4BB27AF2D9E2D8D2D1E
:1043300009C0DB01CA0147E0B695A7959795879517
:104340004A95D1F7880E991EAA1EBB1E80910002C5
:1043500090910102A0910202B09103028816990681
:10436000AA06BB0679F48F898031A1F4DD24EE24FE
:10437000FF24C601880F991FFC01EA52FB4F5182AE
:10438000408219C040E0C501B4010E94192081118A
:10439000EACFB5CFE894C7F8DD24EE24FF24C601A8
:1043A000880F991F880F991FFC01EA52FB4F40822A
:1043B0005182628273828091D30481608093D3049E
:1043C0008A89823080F08D819E81AF81B885880E88
:1043D000991EAA1EBB1E8092CF049092D004A09278
:1043E000D104B092D20481E0DF91CF911F910F915F
:1043F000FF90EF90DF90CF90BF90AF909F908F9005
:104400007F906F905F904F9008952F923F924F92C0
:104410005F926F927F929F92AF92BF92CF92DF9204
:10442000EF92FF920F931F93CF93DF93CDB7DEB739
:1044300060970FB6F894DEBF0FBECDBF5C01498711
:104440005A876B877C871901D901CD90DD90ED905B
:10445000FC90C114D104E104F10431F0BFEFCB1A98
:10446000DB0AEB0AFB0A10C0FC01C080D180E280AD
:10447000F3809924939409851A852B853C85013016
:1044800011052105310509F0912CF50181859285F1
:10449000A385B4858C019D010F5F1F4F2F4F3F4FA8
:1044A0000D871E872F87388B260137011D821E82BC
:1044B0001F821886F50181859285A385B4850D81BB
:1044C0001E812F813885081719072A073B0708F036
:1044D00056C02D853E854F855889241535054605DE
:1044E000570550F482E0482E512C612C712C92E03B
:1044F000C92ED12CE12CF12C9E012F5F3F4FB3012F
:10450000A201C5010E9478208823C9F149815A81FE
:104510006B817C81D301C2010196A11DB11D452B88
:10452000462B472B19F06C017D010FC0AC01BD017A
:104530004C195D096E097F0909851A852B853C8513
:10454000401751076207730779F02D813E814F8133
:1045500058852F5F3F4F4F4F5F4F2D833E834F83D3
:1045600058872C013D01A6CF0FEF1FEF2FEF3FE043
:10457000B301A201C5010E946521811118C080E02C
:1045800041C0D301C2010197A109B1098D839E8366
:10459000AF83B88793018201AC01BD01C5010E94C0
:1045A0006521882361F34D805E806F807884C41418
:1045B000D504E604F70428F3D1014D915D916D9186
:1045C0007C91411551056105710599F4F101C08295
:1045D000D182E282F3829920A1F0FFEFCF1ADF0AA5
:1045E000EF0AFF0AD501CD92DD92ED92FC9213976E
:1045F00008C097018601C5010E9465218111E6CF9F
:10460000BECF81E060960FB6F894DEBF0FBECDBF7F
:10461000DF91CF911F910F91FF90EF90DF90CF909E
:10462000BF90AF909F907F906F905F904F903F9022
:104630002F900895AF92BF92CF92DF92EF92FF92A8
:104640000F931F93CF93DF9300D01F92CDB7DEB7A8
:104650005C016A017B0182E090E0A0E0B0E0F5013E
:1046600080839183A283B3839E012F5F3F4FB70165
:10467000A601C5010E947820882311F100E010E016
:104680009801B701A601C5010E9465218823C1F0E8
:10469000C980DA80EB80FC80F5018789803129F0C0
:1046A00088EF9FEFAFEFBFE004C088EF9FEFA0E07F
:1046B000B0E0C816D906EA06FB06B0F281E001C0F8
:1046C00080E00F900F900F900F90DF91CF911F918E
:1046D0000F91FF90EF90DF90CF90BF90AF90089533
:1046E0008F929F92AF92BF92CF92DF92EF92FF9202
:1046F0000F931F93CF93DF93EC01142F7093D50486
:104700006093D404442369F1453010F080E0F2C096
:1047100040E060E070E0CB010E9419208823B1F3F3
:1047200020E1129FA00111244A535B4FFA01E25489
:10473000FE4F80818F7751F73C9680819181A281D5
:10474000B38184369105A105B10500F33497C0808B
:10475000D180E280F380C114D104E104F10421F49A
:10476000D5CFC12CD12C760140E0C701B6010E9403
:104770001920882359F28091E1049091E204811577
:10478000924021F69091E604992309F4BFCF20913D
:10479000E4043091E504232B09F4B8CF8091E304BD
:1047A000882309F4B3CF9A8B8C831D8690E061E057
:1047B00070E02D85E22FAB01022E02C0440F551F81
:1047C0000A94E2F78417950731F031E0320F3D8704
:1047D000283078F39BCF2091EC043091ED04211523
:1047E000310519F040E050E008C02091FA04309102
:1047F000FB044091FC045091FD042D833E834F83C4
:1048000058878091E4049091E50446015701880E91
:10481000991EA11CB11C8B8A9C8AAD8ABE8A00910C
:10482000E7041091E804198F088FA091E604B0E026
:104830000E94DD3F860E971EA81EB91E8A8E9B8E93
:10484000AC8EBD8E85E0000F111F8A95E1F70150F7
:104850001E4F012F11270695800E911EA11CB11C21
:104860008E869F86A88AB98A2091E9043091EA044D
:104870002115310521F0A90160E070E008C04091E8
:10488000F6045091F7046091F8047091F904D7018F
:10489000C60188199909AA09BB09840F951FA61F8B
:1048A000B71F04C0B695A79597958795EA95D2F757
:1048B00089879A87AB87BC87853F2FE09207A10540
:1048C000B10510F48CE014C0853F9F4FA105B105E0
:1048D00010F480E10DC08091020590910305A09134
:1048E0000405B09105058A8F9B8FAC8FBD8F80E248
:1048F0008F8B81E0DF91CF911F910F91FF90EF900F
:10490000DF90CF90BF90AF909F908F90089580914F
:10491000060790E020910707821B91090895909166
:10492000070780910607981750F4E92FF0E0E85F39
:10493000F84F208130E09F5F9093070702C02FEF70
:104940003FEFC9010895E091070780910607E81736
:1049500030F4F0E0E85FF84F808190E008958FEF49
:104960009FEF08950895CF92DF92EF92FF920F93F9
:104970001F93CF93DF937C01262F972F8A0180917D
:10498000E206882391F0C62FD72F6E01C40ED51EE4
:10499000CC15DD0571F06991D701ED91FC91019085
:1049A000F081E02DC7011995F3CF642F822F0E946B
:1049B000BC3DC801DF91CF911F910F91FF90EF9007
:1049C000DF90CF900895CF93DF931F92CDB7DEB7DE
:1049D00069832091E2062223D1F02091E306203260
:1049E00040F021E030E0FC013383228380E090E05E
:1049F00015C08091E406E82FF0E0EB51F94F998162
:104A000090838F5F8093E4068093E30605C061E0A6
:104A1000CE0101960E94BC3D81E090E00F90DF91B5
:104A2000CF910895FC011382128288EE93E0A0E0FA
:104A3000B0E084839583A683B7838FEE92E0918361
:104A40008083089510920707109206071092E406DB
:104A50001092E3060C94083D862F413208F040E2A4
:104A600068E077E00E94263D1092070780930607D2
:104A7000089521E00C942C2581E08093E206609358
:104A800005071092E4061092E30608950C943C2565
:104A90000F93062F21E04091E30665EE76E08091CA
:104AA00005070E946A3D1092E4061092E3061092F8
:104AB000E2060F91089561E00C94482586ED96E09A
:104AC0000C9412252F923F924F925F926F927F9299
:104AD0008F929F92AF92BF92CF92DF92EF92FF920E
:104AE0000F931F93CF93DF9300D0CDB7DEB74C0168
:104AF0007B836A836A01590117019801241B350BD6
:104B000037FF03C0319521953109C5014A815B8189
:104B1000841B950B97FF03C091958195910951E0F6
:104B200059838217930714F019820BC09A2D8B2D8D
:104B30005801092F182F9A818B81DB82CA82C92ED6
:104B4000D82E8A819B81A816B9065CF49C2D8D2DE8
:104B50006801092F182F9A818B81BB82AA82A92E06
:104B6000B82E2501AA81BB814A1A5B0A38016C184C
:104B70007D0877FE03C0719461947108720157FE3D
:104B800003C0BFEFEB1AFB0AF594E794C016D106F9
:104B90001CF00FEF1FEF1FC001E010E01CC0D4019C
:104BA000ED91FC91B9810084F185E02D9101BB2349
:104BB000C1F04A815B81B601C4011995E618F70876
:104BC000F7FE04C0C00ED11EE40CF51CEA81FB8187
:104BD0003196FB83EA834A815B81A416B506FCF615
:104BE00004C0A6016A817B81E7CF0F900F900F90E0
:104BF000DF91CF911F910F91FF90EF90DF90CF90B9
:104C0000BF90AF909F908F907F906F905F904F90EC
:104C10003F902F9008950895DC01ED91FC91048060
:104C2000F581E02D19940F931F93DC01ED91FC9118
:104C3000008CF18DE02D19951F910F9108950F9320
:104C40001F93DC01ED91FC91028CF38DE02D199501
:104C50001F910F910895EF92FF920F931F93DC0124
:104C6000ED91FC91048CF58DE02D19951F910F911C
:104C7000FF90EF9008950895AF92BF92CF92DF9288
:104C8000EF92FF920F931F93CF93DF9300D01F9269
:104C9000CDB7DEB75C016901DC01ED91FC910680C6
:104CA000F781E02D4B835C8369837A831995D50165
:104CB000ED91FC914B815C81C40ED51EB1E0CB1A05
:104CC000D1080088F189E02D7801860169817A8117
:104CD0009B01C5011995D501ED91FC910288F389DD
:104CE000E02DC5010F900F900F900F90DF91CF91A5
:104CF0001F910F91FF90EF90DF90CF90BF90AF90FA
:104D00001994AF92BF92CF92DF92EF92FF920F93DE
:104D10001F93CF93DF9300D01F92CDB7DEB75C0116
:104D20006901DC01ED91FC910680F781E02D4B8358
:104D30005C8369837A831995D501ED91FC91698132
:104D40007A819B012C0D3D1D215031090088F1898C
:104D5000E02D78014B815C818A01C5011995D5014F
:104D6000ED91FC910288F389E02DC5010F900F9021
:104D70000F900F90DF91CF911F910F91FF90EF90C7
:104D8000DF90CF90BF90AF9019944F925F926F9247
:104D90007F928F929F92AF92BF92CF92DF92EF92CB
:104DA000FF920F931F93CF93DF931F921F92CDB764
:104DB000DEB76C015A0139014801DC01ED91FC912B
:104DC0000680F781E02D69837A8319956981462EE3
:104DD0007A81572E640C751CD601ED91FC91461416
:104DE00057046CF40484F585E02D87019401A50136
:104DF000B201C6011995BFEF4B1A5B0AEDCF0288CD
:104E0000F389E02DC6010F900F90DF91CF911F9194
:104E10000F91FF90EF90DF90CF90BF90AF909F9059
:104E20008F907F906F905F904F901994EF92FF92C8
:104E30000F931F93DC01ED91FC9111971A960D9140
:104E40001C911B9718962D913C911997048CF58D08
:104E5000E02D7B0140E050E060E070E019951F918B
:104E60000F91FF90EF900895CF92DF92EF92FF9213
:104E70000F931F93CF93DF9300D000D0CDB7DEB751
:104E80006C01DC01ED91FC916217730789F4041742
:104E900015072CF4942F852FA801092F182F041B18
:104EA000150B98012F5F3F4F008CF18DE02D12C044
:104EB0004017510709F5261737072CF4962F872F2F
:104EC000B901292F382F261B370B2F5F3F4F028C3C
:104ED000F38DE02D8701C601199526960FB6F8943B
:104EE000DEBF0FBECDBFDF91CF911F910F91FF901D
:104EF000EF90DF90CF9008950680F781E02D2D830D
:104F00003E834B835C8369837A831995D601ED9147
:104F1000FC910088F189E02D2D813E814B815C81DF
:104F200069817A81C6011995D601ED91FC910288BB
:104F3000F389E02DC60126960FB6F894DEBF0FBEAA
:104F4000CDBFDF91CF911F910F91FF90EF90DF9038
:104F5000CF9019946F927F928F929F92AF92BF924F
:104F6000CF92DF92EF92FF920F931F93CF93DF9335
:104F7000EC014B015A0169013801E881F981068091
:104F8000F781E02D1995E881F9810684F785E02DF8
:104F900087019601A501B401CE011995E881F98137
:104FA000A501460D571D415051090684F785E02D96
:104FB0009601B401CE011995E881F9810484F58543
:104FC000E02D9301A501B401CE011995E881F98185
:104FD000C80CD91CB601615071090484F585E02D17
:104FE0009301A501CE011995E881F9810288F38921
:104FF000E02DCE01DF91CF911F910F91FF90EF90A7
:10500000DF90CF90BF90AF909F908F907F906F90E8
:1050100019940895FC016370658B848195812681C4
:105020003781613039F0633029F091878087338789
:105030002287089531872087938782870895FC010E
:10504000138212828FEF92E0918380837583648351
:10505000578346837187608753874287158A1586F1
:1050600014861786168681E0848B2FEF3FEF338BF3
:10507000228B318B208B868B178A118E108E089590
:105080002F923F924F925F926F927F928F929F9258
:10509000AF92BF92CF92DF92EF92FF920F931F9346
:1050A000CF93DF93CDB7DEB728970FB6F894DEBF66
:1050B0000FBECDBF5C013B014A0138872F83FC82C4
:1050C000EB8281E090E02C01421A530AC9019195CC
:1050D000819591099C01220F331F3A83298317017F
:1050E00033E0230E311CEE24E394F12C802F8170E9
:1050F0008D8302700E83C7010197EF81F8858E17AB
:105100009F070CF078C057FC0CC0AF81B885119791
:10511000B887AF83E981FA813296FA83E9834E0E2C
:105120005F1EC701880F991F0196480E591EFD8109
:10513000FF2359F1D501ED91FC912F813885220F84
:10514000331F2F5F3F4F8B819C81280F391F0484B1
:10515000F585E02D8601A401AF81B8854A1B5B0B64
:10516000B701660D771DC5011995D501ED91FC912B
:105170000484F585E02D9101A4014E195F096F812A
:105180007885660D771DC5011995BE81BB2361F138
:10519000D501ED91FC912F813885220F331F2F5FB0
:1051A0003F4F8B819C81280F391F0484F585E02DAA
:1051B0008601A401AF81B8854A1B5B0BB3016E1950
:1051C0007F09C5011995D501ED91FC910484F58500
:1051D000E02D9101A4014E195F09B3018F819885DB
:1051E000681B790BC50119959FEFE91AF90AA2E02E
:1051F0002A0E311C80CF28960FB6F894DEBF0FBE62
:10520000CDBFDF91CF911F910F91FF90EF90DF9075
:10521000CF90BF90AF909F908F907F906F905F9056
:105220004F903F902F9008956F927F928F929F9210
:10523000AF92BF92CF92DF92EF92FF920F931F93A4
:10524000CF93DF93EC014B013A0159016801E881EA
:10525000F9810680F781E02D1995E881F9819501A2
:10526000220F331F2F5F3F4FA3014A195B090484AC
:10527000F585E02DB401CE011995E12CF12C03E068
:105280009501A301B401CE010E944028E881F98173
:105290000288F389E02DCE01DF91CF911F910F910C
:1052A000FF90EF90DF90CF90BF90AF909F908F9046
:1052B0007F906F9019942F923F924F925F926F92CE
:1052C0007F928F929F92AF92BF92CF92DF92EF9296
:1052D000FF920F931F93CF93DF93CDB7DEB76B97FA
:1052E0000FB6F894DEBF0FBECDBF9B8F8A8F1B0118
:1052F0005A8349831F830E83FD82EC82CB82DC01BB
:1053000058964D915C9159974115510509F0B0C0DF
:1053100018968D919C911997681779070CF092C196
:105320001A968D919C911B97E981FA81E817F907EC
:105330000CF088C1AC2CB12CCB01F6E0CF9E800DD7
:10534000911D1124181619060CF07CC1C50133E01B
:10535000880F991F3A95E1F749815A81840F951F6B
:10536000181619060CF06EC157968C91811103C066
:10537000203B08F02F5FAA8DBB8DED91FC9111971A
:105380000680F781E02DCD01298F1995298DB5E093
:105390002B9F9001112461014101212CF901EC198D
:1053A000FD09F987E88729813A81285F3F4F3B87CC
:1053B0002A8735E0231641F0E885F985EC0DFD1DBF
:1053C000EE59FC4F349001C0312C49805A80320193
:1053D00030FE13C0AA8DBB8DED91FC91BB81B13025
:1053E00031F40084F185E02D2E813F8119C00284C3
:1053F000F385E02DEE80FF801EC0EC81FD812E81C3
:105400003F81E217F307F1F0AA8DBB8DED91FC917E
:10541000BB81B13059F40084F185E02D2C813D81B0
:10542000A301B6018A8D9B8D19950CC00284F3856A
:10543000E02DEC80FD8085019501A201B4018A8DEB
:105440009B8D199536944A0C5B1CEFEF6E1A7E0A01
:105450002A853B856216730609F0BACF23948A0C1D
:105460009B1C3FEFC31AD30A46E02412A2CFC8C048
:10547000FA0134969491329765917491291BCB016E
:10548000B7E02B9F800D911D1124FA0125913491D5
:105490003A8B298BFC0165907490FC013296449004
:1054A000319634913C873296C490319654904B811A
:1054B000423058F08C2C0C2C000C9908852D052CB2
:1054C000000C990B9987888704C019861886812C4F
:1054D000912CAA8DBB8DED91FC9111970680F781DF
:1054E000E02DCD011995BB81AB2EB12C8A9CC0015A
:1054F0008B9C900D9A9C900D1124FC01E20DF31DE4
:10550000F88BEF871C82912C812CEC2DCC0CFF0B9F
:1055100091012E0F3F1F3B872A876101C40CD11CCC
:10552000A6014E0F5F1F5E8B4D8B89819A81850D81
:10553000911D57FC9A95988F8F8B4C85841608F097
:105540005FC0882D90E048855985480F591F4A9DB6
:1055500090014B9D300D5A9D300D1124A981BA81C7
:10556000A20FB31FBE87AD87CA84DB842F8438881F
:105570005C80BA855B1AEF89F88DE80FF91FFC8B08
:10558000EB8B852D8C0D2D893E89C216D30699F1A2
:10559000877041F4C3010196E989FA89E60DF71D88
:1055A00094903C0197FE20C0AA8DBB8DED91FC919B
:1055B000BB81B13061F40084F185E02D2E813F8103
:1055C0004B895C89B6018A8D9B8D19950DC002842B
:1055D000F385E02DEE80FF80850195014D855E8588
:1055E000B1018A8D9B8D1995990C2A0C3B1CEFEF0C
:1055F000CE1ADE0AC6CF3C81340D3C8383949DCF06
:10560000AA8DBB8DED91FC9111970288F389E02D55
:10561000CD016B960FB6F894DEBF0FBECDBFDF9104
:10562000CF911F910F91FF90EF90DF90CF90BF909F
:10563000AF909F908F907F906F905F904F903F9032
:105640002F9019946B960FB6F894DEBF0FBECDBFA6
:10565000DF91CF911F910F91FF90EF90DF90CF904E
:10566000BF90AF909F908F907F906F905F904F9082
:105670003F902F900895AF92BF92CF92EF92FF92FA
:105680000F931F93CF93DF93EC01262F888D998D75
:10569000009709F042C06A3069F42C898E859F8595
:1056A00038E0239F800D911D11249F878E871D86D2
:1056B0001C86ACC06D3009F4A9C08E898823C1F066
:1056C0003C898C859D8546E0349F800D911D112479
:1056D00048855985841795075CF01D861C868E8544
:1056E0009F85E8E03E9F800D911D11249F878E8746
:1056F000EA88FB88088919894E855F856C857D85D8
:10570000CC88CE010E945B292C898C859D85F6E092
:105710002F9F800D911D112441C06A3079F41D86A0
:105720001C862C89FC013696E4918E859F852E9FE0
:10573000800D911D11249F878E8768C06D3009F4FC
:1057400065C0AC014C5F5F4FFA013491631708F4F8
:105750005DC03196E491E61708F458C0FA0144910F
:10576000362F341BFC013296A590B490F7E03F9F92
:10577000A00CB11C1124F501329634913196E491BC
:10578000332311F0E1110DC0F5013496E4912C8919
:105790008C859D85E29F800D911D11249D878C87AE
:1057A00035C0F501359644915E89552311F16C8918
:1057B000E32FF0E0E40FF11D47FDFA956E9FD00155
:1057C0006F9FB00D11244C855D854A0F5B1FE885E6
:1057D000F9854E175F076CF01D861C86FC01369616
:1057E000E4918E859F856E9F800D911D11249F876A
:1057F0008E87EA88FB88088919894E855F856C85C4
:105800007D85CC88CE010E945B29BECF81E090E0EF
:10581000DF91CF911F910F91FF90EF90CF90BF90AC
:10582000AF900895FC017587648757874687089570
:10583000611101C061E0FC01648B0895FC01738B70
:10584000628B718B608B0895EF92FF920F931F9381
:10585000DC01ED91FC9111971A960D911C911B970B
:1058600018962D913C911997048CF58DE02D7B01B4
:1058700040E050E060E070E019951F910F91FF90BB
:10588000EF90089520912C07222381F0213051F4CC
:105890002DB320932A073DB320912B072095232376
:1058A0002DBB04C02FB7F89420932A078CBD9DBD53
:1058B000089590912C07992339F080912A0791300F
:1058C00011F48DBB08958FBF0895EF92FF920F934F
:1058D0001F93CF93DF931F92CDB7DEB77C01062FC6
:1058E000142F40EA50E060E870E029830E941F28EE
:1058F00087E293E0F7019183808304A315A32981B4
:1059000026A381E0838F10A617A20F90DF91CF917D
:105910001F910F91FF90EF900895FC01838D8823D4
:1059200039F06EBD00000DB407FEFDCF8EB50895B1
:1059300028E030E090E8A48DB58D81A5492F46235D
:1059400019F04C91842B03C04C91809584238C9347
:10595000A68DB78D4C9182A5842B8C93A68DB78D87
:105960004C9182A5809584238C9396952150310982
:1059700011F708950F931F93CF93DF931F92CDB725
:10598000DEB78C01809128079091290769830E94D6
:10599000422CD8019296ED91FC91939790819C9620
:1059A0008C919C978095892380839096ED91FC91B2
:1059B000919790819B968C918095892380836981B2
:1059C000C8010E948D2CD8019096ED91FC91919781
:1059D00090819B968C91892B80830F90DF91CF9142
:1059E0001F910F910C94592C611102C060E201C00B
:1059F00061E20C94BA2C0F931F93CF93DF931F9205
:105A0000CDB7DEB78C018091280790912907698373
:105A10000E94422CD8019296ED91FC91939790812F
:105A20009C968C919C97892B80839096ED91FC910C
:105A3000919790819B968C91809589238083698131
:105A4000C8010E948D2CD8019096ED91FC91919700
:105A500090819B968C91892B80830F90DF91CF91C1
:105A60001F910F910C94592C1F93CF93DF93EC014E
:105A7000162F66E30E94BA2C612F63706D8B8A8D9E
:105A8000623089F16330A9F16130D1F0823011F4D4
:105A900060EC01C068ECCE010E94FB2C80E890E035
:105AA000998788878A8D813019F480E890E002C058
:105AB00080EA90E09B878A87DF91CF911F910895BC
:105AC000823011F460EA01C068EACE010E94FB2C2A
:105AD0008A8D813019F480E890E002C080EA90E07D
